:020000040800F2
:10000000881D0124E503000809D40008A9C90008D7
:1000100001D400082908000881040108000000003C
:1000200000000000000000000000000019DB0008D4
:10003000A11600080000000081D4000879DB000848
:10004000FF030008FF030008FF030008FF03000888
:10005000FF030008FF030008FF030008FF03000878
:10006000FF030008FF030008FF030008D10A00088F
:10007000E10A0008F10A0008010B0008110B000852
:10008000210B0008310B0008FF030008D1160008FF
:10009000E1160008FF030008FF030008FF03000843
:1000A000FF030008FF030008FF030008FF03000828
:1000B000FF030008FF03000891DD0008FF030008AC
:1000C000FF030008FF030008FF03000829D8000809
:1000D00039D80008FF030008610401087104010811
:1000E000A9160008FF03000800000000FF03000835
:1000F000FF030008FF030008FF030008410B00088E
:10010000FF030008FF030008A1DD0008FF0300084B
:10011000FF03000821EA0008FF030008FF030008AE
:10012000510B0008FF030008610B0008710B000869
:10013000FF030008FF030008FF030008FF03000897
:1001400000000000000000000000000000000000AF
:10015000FF030008FF030008FF030008FF03000877
:10016000FF030008FF030008FF030008FF03000867
:10017000FF030008FF030008FF0300080000000061
:10018000FF030008FF03000831EA0008FF0300082E
:10019000FF030008FF030008FF030008FF03000837
:1001A000FF030008FF030008FF0300080000000031
:1001B000FF030008FF030008FF030008FF03000817
:1001C000FF030008FF03000800000000000000001B
:1001D0000000000000000000FF0300080000000015
:1001E000000000000000000000000000000000000F
:1001F0000000000000000000FF030008FF030008EB
:10020000FF030008FF03000800000000FF030008D0
:10021000FF030008FF030008FF030008FF030008B6
:10022000FF03000800000000FF03000800000000BA
:10023000FF030008FF03000800000000FF030008A0
:10024000FF030008FF030008FF030008FF03000886
:10025000FF030008FF030008FF030008FF03000876
:10026000FF030008FF030008FF030008FF03000866
:10027000FF030008FF030008FF0300080000000060
:10028000FF030008FF030008FF030008FF03000846
:1002900000000000FF030008FF030008000000004A
:1002A00000000000FF030008FF030008FF03000830
:1002B00051040108FF030008FF030008F1160008BD
:1002C000FF030008FF030008FF03000800F002F826
:1002D00000F078F814A696E8000CB244B344DA456E
:1002E00001D100F06FF8BAE80F000FA696E83000D1
:1002F000A5EB040504EB0607AAEB0704A7F1010729
:100300004FEA15154FEA3414A4F10104AC4201D3AD
:1003100000F058F813F0010F18BFFB1A43F0010367
:1003200000F001F8DBE7184788870100A887010083
:100330000A4410F8013B13F0030408BF10F8014B06
:100340001D1108BF10F8015B641E05D010F8016B89
:10035000641E01F8016BF9D1002D15D010F8014B86
:1003600003F00C030C2BA1EB04040ABF10F8013BB3
:10037000A4EB8314A4EB032405F1010314F8016B2F
:100380005B1E01F8016BF9D5914238BF10F8013BB3
:10039000D1D37047704700000023002400250026B9
:1003A000103A28BF78C1FBD8520728BF30C148BFD8
:1003B0000B6070471FB518F062F800F0D5F91FBD4B
:1003C00010B510BD00F0FBF91146FFF7F3FF17F071
:1003D0005FFB00F019FA03B4FFF7F2FF03BC00F073
:1003E0001DFA00000948804709480047FEE7FEE77C
:1003F000FEE7FEE7FEE7FEE7FEE7FEE7FEE7FEE7D5
:1004000004480549054A064B7047000051DC0008C6
:10041000CD020008883D0024881D0124889D002409
:10042000889D002453EA020C00F069802DE9F04B0E
:100430004FF00006002B1FBFB3FA83F503FA05F453
:1004400024FA05F65E4012BF1643B2FA82F502FAAC
:1004500005F4C5F120051EBF22FA05FC44EA0C0490
:10046000203556EA044C4FEA144418BF641C4FF080
:1004700000084FF00009904271EB030C39D30029BA
:1004800019BFB1FA81F701FA07F6B0FA80F700FA5E
:1004900007F6C7F120071EBF20FA07FC46EA0C0644
:1004A0002037B6FBF4FCA7EB0507103F07F01F0B46
:1004B000CBF120062CFA06F60CFA0BFB44BFB34630
:1004C0000026202FA4BF5E464FF0000B5BEA060C0F
:1004D00008BF4FF0010B19EB0B0948EB0608ABFB0B
:1004E000027C06FB02CC0BFB03CCC01B71EB0C01A6
:1004F000C1E70B46024641464846BDE8F08B13B5BE
:10050000084318BF4FF0FF300146AFF30080BDE84D
:100510001C40704753EA020C23D010B54C1084EAFB
:10052000530404D54042C1F1000138BF491E1B42AB
:1005300004D55242C3F1000338BF5B1EFFF772FFC0
:1005400014F0804F04D04042C1F1000138BF491E71
:1005500014F0004F04D05242C3F1000338BF5B1EB9
:1005600010BD13B540424FF0000070EB0104B8BF5E
:10057000012001F0004100281CBF6FF000414FF046
:10058000FF30AFF300801CBD40EA010310B59B07AC
:100590000FD1042A0DD310C808C9121F9C42F8D0ED
:1005A00020BA19BA884201D9012010BD4FF0FF309E
:1005B00010BD1AB1D30703D0521C07E0002010BDB4
:1005C00010F8013B11F8014B1B1B07D110F8013B40
:1005D00011F8014B1B1B01D1921EF1D1184610BD21
:1005E000032A40F2308010F0030C00F0158011F85F
:1005F000013BBCF1020F624498BF11F801CB00F837
:10060000013B38BF11F8013BA2F1040298BF00F88A
:1006100001CB38BF00F8013B11F0030300F0258047
:10062000083AC0F0088051F8043B083A51F804CB6E
:10063000A0E80810F5E7121D5CBF51F8043B40F834
:10064000043BAFF30080D20724BF11F8013B11F83F
:1006500001CB48BF11F8012B24BF00F8013B00F883
:1006600001CB48BF00F8012B704710B5203AC0F00D
:100670000B80B1E81850A0E81850B1E81850A0E875
:100680001850203ABFF4F5AF5FEA027C24BFB1E80E
:100690001850A0E8185044BF18C918C0BDE8104051
:1006A0005FEA827C24BF51F8043B40F8043B08BF5A
:1006B0007047D20728BF31F8023B48BF11F8012B21
:1006C00028BF20F8023B48BF00F8012B70474FF0CD
:1006D00000020429C0F0128010F0030C00F01B800F
:1006E000CCF1040CBCF1020F18BF00F8012BA8BF1D
:1006F00020F8022BA1EB0C0100F00DB85FEAC17CE1
:1007000024BF00F8012B00F8012B48BF00F8012B93
:1007100070474FF0000200B51346944696462039C4
:1007200022BFA0E80C50A0E80C50B1F12001BFF4AA
:10073000F7AF090728BFA0E80C5048BF0CC05DF810
:1007400004EB890028BF40F8042B08BF704748BF5E
:1007500020F8022B11F0804F18BF00F8012B7047D2
:10076000704770477047000008487CB57844009097
:1007700007487844009C0546019004E02046016843
:1007800008448047241DAC42F8D17CBD6083010041
:100790006683010010B500F00DF8006810BD10B5BB
:1007A000044600F007F8046010BD000000487047E0
:1007B00040050024004870474005002470477546F6
:1007C000FFF7F4FFAE4605006946534620F00700E8
:1007D000854618B020B5FFF713FEBDE820404FF066
:1007E00000064FF000074FF000084FF0000BAC463A
:1007F000ACE8C009ACE8C009ACE8C009ACE8C00985
:1008000021F007018D46704710B50446AFF3008014
:100810002046BDE81040FFF7DEBD0000014918206A
:10082000ABBEFEE726000200FFE7FEE70000000087
:1008300080B594B013901291139800684AF20001A9
:10084000C4F20001884221D1FFE7139840F2E05141
:10085000C2F20041086012984863002008900A9094
:100860000B9002210C91012107910D910E900F9098
:1008700043F2C860C2F2004009900AA904F098FB54
:100880000799089A099804F04FFA61E013980068F4
:100890004AF20041C4F2000188421FD1FFE71398D9
:1008A00040F25861C2F2004108601298486300208B
:1008B00005900A900B9002210C910D910E900F90D3
:1008C00043F26870C2F2004006900AA904F070FB7F
:1008D000059A0698102104F027FA38E0139800686A
:1008E0004DF20041C4F2000188422FD1FFE7139876
:1008F00040F29061C2F20041086012984863002003
:1009000003900A900B90022101910C910121029118
:100910000D910E900F9043F60800C2F20040049033
:100920000AA904F045FB019A029B049869460B60F2
:10093000114604F0C9FB029A0498114604F0E4FA47
:100940000299039A049804F0EFF9FFE7FFE7FFE745
:10095000139805F075FC14B080BD00000000000085
:1009600080B58EB00D90ADF832100B92ADF82A30F4
:10097000BDF832000190002002900390BDF82A00DB
:10098000082804DCFFE7BDF82A000490FFE7BDF863
:100990002A000C2803D1FFE709200490FFE7BDF8E7
:1009A0002A00102803D1FFE70A200490FFE7BDF8D2
:1009B0002A00142803D1FFE70B200490FFE7BDF8BD
:1009C0002A00182803D1FFE70C200490FFE7BDF8A8
:1009D0002A00202803D1FFE70D200490FFE7BDF88F
:1009E0002A00302803D1FFE70E200490FFE7BDF86E
:1009F0002A00402803D1FFE70F200490FFE70020E2
:100A0000059006900790089009900D980B9A01A9FF
:100A100004F00AFA0EB080BD80B58EB00D900C9136
:100A20000B92ADF82A300C9801904FF08040029064
:100A300000200390BDF82A00082804DCFFE7BDF879
:100A40002A000490FFE7BDF82A000C2803D1FFE735
:100A500009200490FFE7BDF82A00102803D1FFE722
:100A60000A200490FFE7BDF82A00142803D1FFE70D
:100A70000B200490FFE7BDF82A00182803D1FFE7F8
:100A80000C200490FFE7BDF82A00202803D1FFE7DF
:100A90000D200490FFE7BDF82A00302803D1FFE7BE
:100AA0000E200490FFE7BDF82A00402803D1FFE79D
:100AB0000F200490FFE70020059006900790089013
:100AC00009900D980B9A01A904F0AEF90EB080BD03
:100AD00080B543F2D850C2F2004001F0EDFF80BD76
:100AE00080B543F29020C2F2004001F0E5FF80BDE6
:100AF00080B543F21820C2F2004001F0DDFF80BD56
:100B000080B543F27040C2F2004001F0D5FF80BDD5
:100B100080B543F25060C2F2004001F0CDFF80BDCD
:100B200080B543F2F830C2F2004001F0C5FF80BD4D
:100B300080B543F20830C2F2004001F0BDFF80BD35
:100B400080B543F28030C2F2004001F0B5FF80BDB5
:100B500080B543F2A010C2F2004001F0ADFF80BDAD
:100B600080B543F2E840C2F2004001F0A5FF80BD2D
:100B700080B543F26050C2F2004001F09DFF80BD9D
:100B800083B002900298016801201022C4F2020290
:100B90009142009000F0A380FFE7029801680120D5
:100BA0002822C4F202029142009000F09880FFE7F0
:100BB0000298016801204022C4F202029142009092
:100BC00000F08D80FFE70298016801205822C4F2EE
:100BD00002029142009000F08280FFE702980168D3
:100BE00001207022C4F202029142009077D0FFE708
:100BF0000298016801208822C4F20202914200900A
:100C00006DD0FFE7029801680120A022C4F2020221
:100C10009142009063D0FFE7029801680120B8225A
:100C2000C4F202029142009059D0FFE70298016895
:100C3000012040F21042C4F20202914200904ED0D4
:100C4000FFE702980168012040F22842C4F2020244
:100C50009142009043D0FFE702980168012040F2E2
:100C60004042C4F202029142009038D0FFE702985D
:100C70000168012040F25842C4F202029142009001
:100C80002DD0FFE702980168012040F27042C4F2C3
:100C900002029142009022D0FFE7029801680120F1
:100CA00040F28842C4F202029142009017D0FFE75E
:100CB00002980168012040F2A042C4F2020291426F
:100CC00000900CD0FFE7029800684FF64831CBF651
:100CD000FD710844B0FA80F040090090FFE70098E9
:100CE000C00740B3FFE70298007810384AF6AB21FE
:100CF000CAF6AA21A0FB011000090190019800F09A
:100D0000070148F25060C0F60100405C0299C865D6
:100D10000198042807D3FFE702990868042262F3C8
:100D20000900886506E00299086840F2FF329043A6
:100D30008865FFE705E00299086820F0FF008865F4
:100D4000FFE70298806D03B07047000000000000CC
:100D500084B0039003980068019003980168012013
:100D600045F20842C5F60202914200904ED0FFE7DC
:100D700003980168012045F21C42C5F60202914227
:100D8000009043D0FFE703980168012045F230420C
:100D9000C5F602029142009038D0FFE7039801683F
:100DA000012045F24442C5F60202914200902DD046
:100DB000FFE703980168012045F25842C5F6020298
:100DC0009142009022D0FFE703980168012045F28C
:100DD0006C42C5F602029142009017D0FFE70398DB
:100DE0000168012045F28042C5F60202914200905E
:100DF0000CD0FFE7039800684AF66C31CAF2FD7127
:100E00000844B0FA80F040090090FFE70098C0075E
:100E100010B3FFE70398007808384CF6CD41CCF6C4
:100E2000CC41A0FB011000090290029945F6000098
:100E3000C5F6020000EB810003990866039945F6A8
:100E40008000C5F602004866029800F01F010120EC
:100E500088400399886635E00398007810384AF690
:100E6000AB21CAF6AA21A0FB01100009029001984B
:100E700040F2B841C4F2020188420CD8FFE7019861
:100E800040F21041C4F20201884204D3FFE7029805
:100E900008300290FFE7029940F60000C4F2020019
:100EA00000EB810003990866039940F68000C4F2C4
:100EB00002004866029800F01F0101208840039953
:100EC0008866FFE704B0704783B00290029800790B
:100ED00001900198002800F08A80FFE70198082817
:100EE00000F28580FFE702980168012045F2084280
:100EF000C5F60202914200904ED0FFE702980168C9
:100F0000012045F21C42C5F602029142009043D0F6
:100F1000FFE702980168012045F23042C5F602025F
:100F20009142009038D0FFE702980168012045F215
:100F30004442C5F60202914200902DD0FFE702988C
:100F40000168012045F25842C5F602029142009024
:100F500022D0FFE702980168012045F26C42C5F6F5
:100F600002029142009017D0FFE702980168012029
:100F700045F28042C5F60202914200900CD0FFE794
:100F8000029800684AF66C31CAF2FD710844B0FA62
:100F900080F040090090FFE70098C00780B1FFE7AC
:100FA000019945F6FC00C5F6020000EB81000299AC
:100FB000C866029945F64010C5F6020008670FE0C2
:100FC000019940F6FC00C4F2020000EB8100029996
:100FD000C866029940F64010C4F202000867FFE7B5
:100FE0000198411E0120884002994867FFE703B03D
:100FF000704700000000000085B0049000208DF8CC
:101000000F000498806918BBFFE70498806A02907B
:1010100003281BD80299DFE801F0020D021804989A
:1010200090F82F00C00720B1FFE701208DF80F00D6
:10103000FFE70CE00498C06AB0F1C07F04D1FFE77D
:1010400001208DF80F00FFE701E000E0FFE747E037
:1010500004988069B0F5005F26D1FFE70498806AA4
:10106000019003281ED80199DFE801F00206021161
:1010700001208DF80F0016E0049890F82F00C007AB
:1010800020B1FFE701208DF80F00FFE70BE0049887
:10109000C06AB0F1C07F04D1FFE701208DF80F00D6
:1010A000FFE700E0FFE71AE00498806A0090032859
:1010B00004D3FFE70098032804D00EE001208DF848
:1010C0000F000BE0049890F82F00C00720B1FFE755
:1010D00001208DF80F00FFE700E0FFE7FFE7FFE7E3
:1010E0009DF80F0005B0704789B0089007910692EF
:1010F00005930898806D04900898806D0390089877
:10110000016801201022C4F202029142029000F014
:101110000381FFE70898016801202822C4F2020237
:101120009142029000F0F880FFE7089801680120E2
:101130004022C4F202029142029000F0ED80FFE7EB
:101140000898016801205822C4F2020291420290DC
:1011500000F0E280FFE70898016801207022C4F2E5
:1011600002029142029000F0D780FFE708980168E0
:1011700001208822C4F202029142029000F0CC8049
:10118000FFE7089801680120A022C4F20202914200
:10119000029000F0C180FFE7089801680120B822A2
:1011A000C4F202029142029000F0B680FFE7089874
:1011B0000168012040F21042C4F202029142029002
:1011C00000F0AA80FFE708980168012040F2284259
:1011D000C4F202029142029000F09E80FFE708985C
:1011E0000168012040F24042C4F2020291420290A2
:1011F00000F09280FFE708980168012040F2584211
:10120000C4F202029142029000F08680FFE7089843
:101210000168012040F27042C4F202029142029041
:101220007AD0FFE708980168012040F28842C4F2B2
:101230000202914202906FD0FFE7089801680120F6
:1012400040F2A042C4F202029142029064D0FFE751
:1012500008980168012040F2B842C4F202029142AB
:10126000029059D0FFE708980168012045F2084232
:10127000C5F60202914202904ED0FFE7089801683D
:10128000012045F21C42C5F602029142029043D071
:10129000FFE708980168012045F23042C5F60202D6
:1012A0009142029038D0FFE708980168012045F28A
:1012B0004442C5F60202914202902DD0FFE7089801
:1012C0000168012045F25842C5F60202914202909F
:1012D00022D0FFE708980168012045F26C42C5F66C
:1012E00002029142029017D0FFE70898016801209E
:1012F00045F28042C5F60202914202900CD0FFE70F
:10130000089800684AF66C31CAF2FD710844B0FAD8
:1013100080F040090290FFE70298C00770B1FFE734
:101320000898416E806E48600898C06E28B1FFE74B
:101330000898016F406F4860FFE7FFE70898016871
:1013400001201022C4F202029142019000F0A38019
:10135000FFE70898016801202822C4F202029142A6
:10136000019000F09880FFE7089801680120402272
:10137000C4F202029142019000F08D80FFE70898CC
:10138000016801205822C4F202029142019000F04B
:101390008280FFE70898016801207022C4F20202EF
:1013A0009142019077D0FFE70898016801208822D8
:1013B000C4F20202914201906DD0FFE708980168E3
:1013C0000120A022C4F202029142019063D0FFE703
:1013D000089801680120B822C4F2020291420190EB
:1013E00059D0FFE708980168012040F21042C4F28A
:1013F0000202914201904ED0FFE708980168012057
:1014000040F22842C4F202029142019043D0FFE729
:1014100008980168012040F24042C4F20202914261
:10142000019038D0FFE708980168012040F2584247
:10143000C4F20202914201902DD0FFE708980168A2
:10144000012040F27042C4F202029142019022D087
:10145000FFE708980168012040F28842C4F20202C6
:101460009142019017D0FFE708980168012040F2EF
:10147000A042C4F20202914201900CD0FFE708980A
:1014800000684FF64831CBF6FD710844B0FA80F0A1
:1014900040090190FFE70198C00750B3FFE70898A3
:1014A000C06D00F01F013F208840049988600898B3
:1014B0000168086820F48020086005980899096888
:1014C000486008988068402809D1FFE70698089985
:1014D00009688860079808990968C86008E0079853
:1014E000089909688860069808990968C860FFE744
:1014F00082E008980168012045F20842C5F6020220
:10150000914200904ED0FFE708980168012045F213
:101510001C42C5F602029142009043D0FFE70898B2
:101520000168012045F23042C5F602029142009066
:1015300038D0FFE708980168012045F24442C5F61B
:101540000202914200902DD0FFE708980168012027
:1015500045F25842C5F602029142009022D0FFE7C0
:1015600008980168012045F26C42C5F602029142DA
:10157000009017D0FFE708980168012045F28042EB
:10158000C5F60202914200900CD0FFE7089800686F
:101590004AF66C31CAF2FD710844B0FA80F0400995
:1015A0000090FFE70098C00720B3FFE70898C06DE0
:1015B00000F01F01012088400399486005980899B0
:1015C0000968486008988068402809D1FFE70698B4
:1015D000089909688860079808990968C86008E050
:1015E0000798089909688860069808990968C8608A
:1015F000FFE700E0FFE7FFE709B0704700000000E9
:1016000081B000904EF6FC51CEF20001086840F027
:101610008070086041F6B071CEF2000108684CF6A7
:101620005562CCF2AC521043086041F20401CEF294
:1016300000010020086041F20002CEF200021168B1
:1016400041F001011160009944F24022C0F20F0202
:101650004A4340F2C861C2F200410A600A6844F697
:10166000D353C1F26203A2FB0332920940F2CC636E
:10167000C2F200431A6009684DF68362C4F21B325D
:10168000A1FB0221890C40F2D062C2F2004211603B
:1016900040F2D461C2F20041086001B0704700001E
:1016A000704700000000000080B54FF4806004F037
:1016B0003FFE4FF4805004F03BFE80BD0000000070
:1016C00081B0EFF3108072B60090FFE7FEE70000F4
:1016D00080B543F2C860C2F2004003F0E5FE80BD71
:1016E00080B543F26870C2F2004003F0DDFE80BDB9
:1016F00080B543F60800C2F2004003F0D5FE80BD7D
:1017000084B002900298406B009002980068D0F874
:1017100084004FF6FC718843009940EA81000299E9
:101720000968C1F8840002980068D0F8840020F4A9
:101730007F00029A1168926B40EA0240C1F884006F
:101740000298816B00980844009002980068D0F8D5
:1017500088006FF38F00009940EA810002990968C0
:10176000C1F8880002980068D0F8880020F4FE00D4
:10177000029A1168D26B40EA0240C1F888000298D0
:10178000C16B009800EB4100009002980068D0F80F
:10179000A0006FF38F00009940EA81000299096868
:1017A000C1F8A00002980068D0F8A00020F4FE0064
:1017B000029A1168126C40EA0240C1F8A000029936
:1017C000086C496C009A00FB0120009002980068A8
:1017D000D0F8B0006FF38F00009940EA81000299C1
:1017E0000968C1F8B00002980068D0F8B00020F491
:1017F000FE00029A1168926C40EA0240C1F8B00003
:101800000299886CC96C009A00FB01200090029834
:101810000068D0F8AC006FF38F00009940EA8100B7
:1018200002990968C1F8AC000299086D496D009AE7
:1018300000FB0120009002980068D0F8F0006FF3E0
:101840008F00009940EA810002990968C1F8F00010
:1018500002980068D0F8F00020F47C10029A116819
:10186000926D40EA0240C1F8F0000298816D009844
:1018700000EB4100009002980068D0F8C0006FF3C0
:101880008F00009940EA810002990968C1F8C00000
:1018900002980068D0F8C00020F47C10029A116809
:1018A000D26D40EA0240C1F8C00002980068D0F84A
:1018B000C00020F07C50029A1168126E40EA02606B
:1018C000C1F8C00002994A6B4AF60040C4F2000019
:1018D00000EB8200C86602998A6BC86E00EB82003A
:1018E00008670299CA6B086F00EBC200486702994B
:1018F0000A6C4B6C486F5A4300EB82008867029970
:101900008A6CCB6C886F5A4300EB8200C8670299DF
:101910000A6D4B6DC86F5A4300EB8200C1F880001E
:1019200002998A6DD1F8800000EBC200C1F88400F2
:101930000299CA6D8B6ED1F884005A4300EB820085
:10194000C1F8880002990A6E8B6ED1F888005A435C
:1019500000EB8200C1F890000298D0F890004DF2A0
:10196000FD31C4F2000188420FD3FFE70299D1F89C
:101970009C0040F02000C1F89C000299032081F8EF
:10198000980001208DF80F0017E00298C06E0190BA
:10199000FFE701980299D1F89010884208D2FFE73A
:1019A000019900200860FFE7019804300190F0E7FA
:1019B000FFE700208DF80F00FFE79DF80F0004B04F
:1019C000704700000000000088B007900691059263
:1019D00004930698406848B9FFE706980168826852
:1019E0000069104340EA8140039009E006980168CD
:1019F000826800691043084340F080400390FFE78D
:101A00000698D0F820C0C16842698369C06940EA7D
:101A10000C601843104340EA014002900798826E20
:101A2000D0F884000499514300EB810001900398A1
:101A300001990860019804300190029801990860AA
:101A400001980430019000200090FFE7009806996B
:101A5000CA6848F24061C0F60101895C88420DD233
:101A6000FFE70598009940580199086001980430F3
:101A70000190FFE7009804300090E7E708B0704756
:101A800080B58AB0089004F06FFE0490089828B9D9
:101A9000FFE701208DF8270000F0AABC089890F815
:101AA000350002280ED0FFE7089980204865FFE73F
:101AB0000899002081F83400FFE701208DF8270005
:101AC00000F096BC0898016801201022C4F20202BE
:101AD0009142039000F0A380FFE70898016801207D
:101AE0002822C4F202029142039000F09880FFE79E
:101AF0000898016801204022C4F20202914203903A
:101B000000F08D80FFE70898016801205822C4F298
:101B100002029142039000F08280FFE7089801687A
:101B200001207022C4F202029142039077D0FFE7B5
:101B30000898016801208822C4F2020291420390B1
:101B40006DD0FFE7089801680120A022C4F20202CC
:101B50009142039063D0FFE7089801680120B82202
:101B6000C4F202029142039059D0FFE7089801683D
:101B7000012040F21042C4F20202914203904ED082
:101B8000FFE708980168012040F22842C4F20202EF
:101B90009142039043D0FFE708980168012040F28A
:101BA0004042C4F202029142039038D0FFE7089805
:101BB0000168012040F25842C4F2020291420390AF
:101BC0002DD0FFE708980168012040F27042C4F26E
:101BD00002029142039022D0FFE708980168012099
:101BE00040F28842C4F202029142039017D0FFE70C
:101BF00008980168012040F2A042C4F2020291421A
:101C000003900CD0FFE7089800684FF64831CBF6F8
:101C1000FD710844B0FA80F040090390FFE7039893
:101C2000C00780B1FFE708980168086820F01E002F
:101C3000086008980168486920F0800048610898A9
:101C40000068059009E008980168086820F00E0017
:101C50000860089800680590FFE70898016801206F
:101C60001022C4F202029142029000F00381FFE7C9
:101C70000898016801202822C4F2020291420290D1
:101C800000F0F880FFE70898016801204022C4F2C4
:101C900002029142029000F0ED80FFE7089801688F
:101CA00001205822C4F202029142029000F0E28028
:101CB000FFE70898016801207022C4F202029142F5
:101CC000029000F0D780FFE7089801680120882281
:101CD000C4F202029142029000F0CC80FFE7089823
:101CE00001680120A022C4F202029142029000F099
:101CF000C180FFE7089801680120B822C4F20202FF
:101D00009142029000F0B680FFE708980168012038
:101D100040F21042C4F202029142029000F0AA8006
:101D2000FFE708980168012040F22842C4F202024D
:101D30009142029000F09E80FFE708980168012020
:101D400040F24042C4F202029142029000F09280BE
:101D5000FFE708980168012040F25842C4F20202ED
:101D60009142029000F08680FFE708980168012008
:101D700040F27042C4F20202914202907AD0FFE730
:101D800008980168012040F28842C4F202029142A0
:101D900002906FD0FFE708980168012040F2A0424E
:101DA000C4F202029142029064D0FFE708980168F1
:101DB000012040F2B842C4F202029142029059D08E
:101DC000FFE708980168012045F20842C5F60202C3
:101DD000914202904ED0FFE708980168012045F239
:101DE0001C42C5F602029142029043D0FFE70898D8
:101DF0000168012045F23042C5F60202914202908C
:101E000038D0FFE708980168012045F24442C5F642
:101E10000202914202902DD0FFE70898016801204C
:101E200045F25842C5F602029142029022D0FFE7E5
:101E300008980168012045F26C42C5F60202914201
:101E4000029017D0FFE708980168012045F2804210
:101E5000C5F60202914202900CD0FFE70898006894
:101E60004AF66C31CAF2FD710844B0FA80F04009BC
:101E70000290FFE70298C00738B1FFE70898016EAB
:101E8000086820F480700860FFE708980068102157
:101E9000C4F20201884200F08180FFE708980068E0
:101EA0002821C4F20201884278D0FFE70898006830
:101EB0004021C4F20201884270D0FFE70898006810
:101EC0005821C4F20201884268D0FFE708980068F0
:101ED0007021C4F20201884260D0FFE708980068D0
:101EE0008821C4F20201884258D0FFE708980068B0
:101EF000A021C4F20201884250D0FFE70898006890
:101F0000B821C4F20201884248D0FFE7089800686F
:101F100040F21041C4F2020188423FD0FFE7089826
:101F2000006840F22841C4F20201884236D0FFE73F
:101F30000898006840F24041C4F2020188422DD066
:101F4000FFE70898006840F25841C4F20201884255
:101F500024D0FFE70898006840F27041C4F2020103
:101F600088421BD0FFE70898006840F28841C4F21D
:101F70000201884212D0FFE70898006840F2A041B1
:101F8000C4F20201884209D0FFE70898006840F2D5
:101F9000B841C4F20201884207D1FFE708980168FE
:101FA000086820F00100086006E0089801680868E9
:101FB00020F001000860FFE7FFE705980068C00710
:101FC000C8B1FFE704F0D0FB0499401A062811D3EA
:101FD000FFE70899202048650899032081F835001B
:101FE000FFE70899002081F83400FFE701208DF811
:101FF0002700FDE1E1E70898016801201022C4F202
:1020000002029142019000F0A380FFE70898016866
:1020100001202822C4F202029142019000F098802F
:10202000FFE70898016801204022C4F202029142B1
:10203000019000F08D80FFE7089801680120582288
:10204000C4F202029142019000F08280FFE70898FA
:10205000016801207022C4F202029142019077D0FF
:10206000FFE70898016801208822C4F20202914229
:1020700001906DD0FFE7089801680120A022C4F20A
:1020800002029142019063D0FFE7089801680120A5
:10209000B822C4F202029142019059D0FFE7089899
:1020A0000168012040F21042C4F202029142019004
:1020B0004ED0FFE708980168012040F22842C4F2A0
:1020C00002029142019043D0FFE708980168012085
:1020D00040F24042C4F202029142019038D0FFE740
:1020E00008980168012040F25842C4F2020291426D
:1020F00001902DD0FFE708980168012040F270425E
:10210000C4F202029142019022D0FFE708980168D0
:10211000012040F28842C4F202029142019017D09D
:10212000FFE708980168012040F2A042C4F20202D1
:10213000914201900CD0FFE7089800684FF64831B3
:10214000CBF6FD710844B0FA80F040090190FFE73A
:102150000198C00760B1FFE70898806D0790089864
:10216000C06D00F01F013F208840079988600BE098
:102170000898806D06900898C06D00F01F0101203E
:10218000884006994860FFE70898016801201022FE
:10219000C4F202029142009000F00381FFE7089828
:1021A000016801202822C4F202029142009000F04E
:1021B000F880FFE70898016801204022C4F202027B
:1021C0009142009000F0ED80FFE70898016801203F
:1021D0005822C4F202029142009000F0E280FFE730
:1021E0000898016801207022C4F202029142009016
:1021F00000F0D780FFE70898016801208822C4F228
:1022000002029142009000F0CC80FFE7089801683C
:102210000120A022C4F202029142009000F0C1808D
:10222000FFE7089801680120B822C4F20202914237
:10223000009000F0B680FFE708980168012040F2A6
:102240001042C4F202029142009000F0AA80FFE71F
:1022500008980168012040F22842C4F2020291422B
:10226000009000F09E80FFE708980168012040F28E
:102270004042C4F202029142009000F09280FFE7D7
:1022800008980168012040F25842C4F202029142CB
:10229000009000F08680FFE708980168012040F276
:1022A0007042C4F20202914200907AD0FFE708988F
:1022B0000168012040F28842C4F20202914200907B
:1022C0006FD0FFE708980168012040F2A042C4F2F5
:1022D00002029142009064D0FFE708980168012053
:1022E00040F2B842C4F202029142009059D0FFE796
:1022F00008980168012045F20842C5F602029142A1
:1023000000904ED0FFE708980168012045F21C427A
:10231000C5F602029142009043D0FFE70898016899
:10232000012045F23042C5F602029142009038D0B9
:10233000FFE708980168012045F24442C5F6020211
:10234000914200902DD0FFE708980168012045F2E6
:102350005842C5F602029142009022D0FFE7089849
:102360000168012045F26C42C5F6020291420090DC
:1023700017D0FFE708980168012045F28042C5F6B2
:102380000202914200900CD0FFE7089800684AF6DC
:102390006C31CAF2FD710844B0FA80F04009009037
:1023A000FFE70098C007A0B1FFE70898416E806E74
:1023B00048600898C06E58B1FFE70898C16E086879
:1023C00020F4807008600898016F406F4860FFE754
:1023D000FFE70899012081F83500FFE70899002000
:1023E00081F83400FFE7FFE700208DF82700FFE7C2
:1023F0009DF827000AB080BD80B586B0049004988F
:1024000020B9FFE701208DF8170046E3049890F803
:102410003500022807D0FFE7049980204865012095
:102420008DF8170039E30498016801201022C4F2E6
:1024300002029142029000F0A380FFE70498016835
:1024400001202822C4F202029142029000F09880FA
:10245000FFE70498016801204022C4F20202914281
:10246000029000F08D80FFE7049801680120582257
:10247000C4F202029142029000F08280FFE70498C9
:10248000016801207022C4F202029142029077D0CA
:10249000FFE70498016801208822C4F202029142F9
:1024A00002906DD0FFE7049801680120A022C4F2D9
:1024B00002029142029063D0FFE704980168012074
:1024C000B822C4F202029142029059D0FFE7049868
:1024D0000168012040F21042C4F2020291420290CF
:1024E0004ED0FFE704980168012040F22842C4F270
:1024F00002029142029043D0FFE704980168012054
:1025000040F24042C4F202029142029038D0FFE70A
:1025100004980168012040F25842C4F2020291423C
:1025200002902DD0FFE704980168012040F270422C
:10253000C4F202029142029022D0FFE7049801689F
:10254000012040F28842C4F202029142029017D068
:10255000FFE704980168012040F2A042C4F20202A1
:10256000914202900CD0FFE7049800684FF6483182
:10257000CBF6FD710844B0FA80F040090290FFE705
:102580000298C007002800F09D80FFE7049904200E
:1025900081F83500049800681021C4F202018842D5
:1025A00000F08180FFE7049800682821C4F202014E
:1025B000884278D0FFE7049800684021C4F2020105
:1025C000884270D0FFE7049800685821C4F20201E5
:1025D000884268D0FFE7049800687021C4F20201C5
:1025E000884260D0FFE7049800688821C4F20201A5
:1025F000884258D0FFE704980068A021C4F2020185
:10260000884250D0FFE704980068B821C4F2020164
:10261000884248D0FFE70498006840F21041C4F2B5
:10262000020188423FD0FFE70498006840F2284149
:10263000C4F20201884236D0FFE70498006840F2F5
:102640004041C4F2020188422DD0FFE7049800689F
:1026500040F25841C4F20201884224D0FFE70498B6
:10266000006840F27041C4F2020188421BD0FFE7CB
:102670000498006840F28841C4F20201884212D0F6
:10268000FFE70498006840F2A041C4F202018842CA
:1026900009D0FFE70498006840F2B841C4F2020193
:1026A000884207D1FFE704980168086820F001001C
:1026B000086006E004980168086820F001000860DE
:1026C000FFE7E5E104980168086820F00E00086063
:1026D000049800681021C4F20201884200F0818051
:1026E000FFE7049800682821C4F20201884278D0EC
:1026F000FFE7049800684021C4F20201884270D0CC
:10270000FFE7049800685821C4F20201884268D0AB
:10271000FFE7049800687021C4F20201884260D08B
:10272000FFE7049800688821C4F20201884258D06B
:10273000FFE704980068A021C4F20201884250D04B
:10274000FFE704980068B821C4F20201884248D02B
:10275000FFE70498006840F21041C4F20201884289
:102760003FD0FFE70498006840F22841C4F202011C
:10277000884236D0FFE70498006840F24041C4F236
:10278000020188422DD0FFE70498006840F25841CA
:10279000C4F20201884224D0FFE70498006840F2A6
:1027A0007041C4F2020188421BD0FFE70498006820
:1027B00040F28841C4F20201884212D0FFE7049837
:1027C000006840F2A041C4F20201884209D0FFE74C
:1027D0000498006840F2B841C4F20201884207D16F
:1027E000FFE704980168086820F00100086006E02F
:1027F00004980168086820F001000860FFE7049869
:10280000016801201022C4F202029142019000F0FE
:102810000381FFE70498016801202822C4F2020224
:102820009142019000F0F880FFE7049801680120D0
:102830004022C4F202029142019000F0ED80FFE7D5
:102840000498016801205822C4F2020291420190CA
:1028500000F0E280FFE70498016801207022C4F2D2
:1028600002029142019000F0D780FFE704980168CE
:1028700001208822C4F202029142019000F0CC8033
:10288000FFE7049801680120A022C4F202029142ED
:10289000019000F0C180FFE7049801680120B82290
:1028A000C4F202029142019000F0B680FFE7049862
:1028B0000168012040F21042C4F2020291420190EC
:1028C00000F0AA80FFE704980168012040F2284246
:1028D000C4F202029142019000F09E80FFE704984A
:1028E0000168012040F24042C4F20202914201908C
:1028F00000F09280FFE704980168012040F25842FE
:10290000C4F202029142019000F08680FFE7049831
:102910000168012040F27042C4F20202914201902B
:102920007AD0FFE704980168012040F28842C4F29F
:102930000202914201906FD0FFE7049801680120E4
:1029400040F2A042C4F202029142019064D0FFE73B
:1029500004980168012040F2B842C4F20202914298
:10296000019059D0FFE704980168012045F2084220
:10297000C5F60202914201904ED0FFE7049801682B
:10298000012045F21C42C5F602029142019043D05B
:10299000FFE704980168012045F23042C5F60202C3
:1029A0009142019038D0FFE704980168012045F278
:1029B0004442C5F60202914201902DD0FFE70498EF
:1029C0000168012045F25842C5F602029142019089
:1029D00022D0FFE704980168012045F26C42C5F659
:1029E00002029142019017D0FFE70498016801208C
:1029F00045F28042C5F60202914201900CD0FFE7F9
:102A0000049800684AF66C31CAF2FD710844B0FAC5
:102A100080F040090190FFE70198C00728B3FFE765
:102A20000498016E086820F4807008600498806D36
:102A300003900498C06D00F01F01012088400399A5
:102A400048600498416E806E48600498C06E58B12A
:102A5000FFE70498C16E086820F48070086004984D
:102A6000016F406F4860FFE7FFE70499012081F89C
:102A70003500FFE70499002081F83400FFE704984F
:102A8000006D20B1FFE70498016D8847FFE7FFE77D
:102A9000FFE700208DF81700FFE79DF8170006B04C
:102AA00080BD00000000000081B000900098406DE3
:102AB00001B070470000000080B590B00F9000207A
:102AC0000B9040F21000C2F20040006848F2B511CD
:102AD000C1F64E31A0FB0110800A0A900F98806D5C
:102AE00009900F98806D0890099800680E900898DA
:102AF00000680D900F98016801201022C4F20202B4
:102B00009142079000F0A380FFE70F980168012031
:102B10002822C4F202029142079000F09880FFE759
:102B20000F98016801204022C4F2020291420790EE
:102B300000F08D80FFE70F98016801205822C4F251
:102B400002029142079000F08280FFE70F9801682F
:102B500001207022C4F202029142079077D0FFE771
:102B60000F98016801208822C4F202029142079066
:102B70006DD0FFE70F9801680120A022C4F2020285
:102B80009142079063D0FFE70F9801680120B822B7
:102B9000C4F202029142079059D0FFE70F980168F2
:102BA000012040F21042C4F20202914207904ED03E
:102BB000FFE70F980168012040F22842C4F20202A8
:102BC0009142079043D0FFE70F980168012040F23F
:102BD0004042C4F202029142079038D0FFE70F98BA
:102BE0000168012040F25842C4F20202914207906B
:102BF0002DD0FFE70F980168012040F27042C4F227
:102C000002029142079022D0FFE70F98016801204D
:102C100040F28842C4F202029142079017D0FFE7C7
:102C20000F980168012040F2A042C4F202029142D2
:102C300007900CD0FFE70F9800684FF64831CBF6AD
:102C4000FD710844B0FA80F040090790FFE707984B
:102C5000C007002800F01385FFE70E980F99C96D93
:102C600001F01F01C8400007002840F1B080FFE7D5
:102C70000F9800681021C4F20201884200F08180A0
:102C8000FFE70F9800682821C4F20201884278D03B
:102C9000FFE70F9800684021C4F20201884270D01B
:102CA000FFE70F9800685821C4F20201884268D0FB
:102CB000FFE70F9800687021C4F20201884260D0DB
:102CC000FFE70F9800688821C4F20201884258D0BB
:102CD000FFE70F980068A021C4F20201884250D09B
:102CE000FFE70F980068B821C4F20201884248D07B
:102CF000FFE70F98006840F21041C4F202018842D9
:102D00003FD0FFE70F98006840F22841C4F202016B
:102D1000884236D0FFE70F98006840F24041C4F285
:102D2000020188422DD0FFE70F98006840F2584119
:102D3000C4F20201884224D0FFE70F98006840F2F5
:102D40007041C4F2020188421BD0FFE70F9800686F
:102D500040F28841C4F20201884212D0FFE70F9886
:102D6000006840F2A041C4F20201884209D0FFE7A6
:102D70000F98006840F2B841C4F20201884207D1BE
:102D8000FFE70F980068006800F00400069006E076
:102D90000F980068006800F008000690FFE70698AA
:102DA000A0B1FFE70F980168086820F004000860F0
:102DB0000F98C06D00F01F010820884009998860B5
:102DC0000F99486D40F001004865FFE7FFE70E9856
:102DD0000F99C96D01F01F01C840C007002800F01D
:102DE000A980FFE70F9800681021C4F20201884211
:102DF00000F08180FFE70F9800682821C4F20201EB
:102E0000884278D0FFE70F9800684021C4F20201A1
:102E1000884270D0FFE70F9800685821C4F2020181
:102E2000884268D0FFE70F9800687021C4F2020161
:102E3000884260D0FFE70F9800688821C4F2020141
:102E4000884258D0FFE70F980068A021C4F2020121
:102E5000884250D0FFE70F980068B821C4F2020101
:102E6000884248D0FFE70F98006840F21041C4F252
:102E7000020188423FD0FFE70F98006840F22841E6
:102E8000C4F20201884236D0FFE70F98006840F292
:102E90004041C4F2020188422DD0FFE70F9800683C
:102EA00040F25841C4F20201884224D0FFE70F9853
:102EB000006840F27041C4F2020188421BD0FFE773
:102EC0000F98006840F28841C4F20201884212D093
:102ED000FFE70F98006840F2A041C4F20201884267
:102EE00009D0FFE70F98006840F2B841C4F2020130
:102EF000884207D1FFE70F980068406900F0800022
:102F0000059005E00F980068006800200590FFE735
:102F1000059870B1FFE70F98C06D00F01F01012008
:102F20008840099988600F99486D40F00200486513
:102F3000FFE7FFE70E980F99C96D01F01F01C84028
:102F40004007002840F1A980FFE70F980068102192
:102F5000C4F20201884200F08180FFE70F98006808
:102F60002821C4F20201884278D0FFE70F98006858
:102F70004021C4F20201884270D0FFE70F98006838
:102F80005821C4F20201884268D0FFE70F98006818
:102F90007021C4F20201884260D0FFE70F980068F8
:102FA0008821C4F20201884258D0FFE70F980068D8
:102FB000A021C4F20201884250D0FFE70F980068B8
:102FC000B821C4F20201884248D0FFE70F98006898
:102FD00040F21041C4F2020188423FD0FFE70F984F
:102FE000006840F22841C4F20201884236D0FFE76F
:102FF0000F98006840F24041C4F2020188422DD08F
:10300000FFE70F98006840F25841C4F2020188427D
:1030100024D0FFE70F98006840F27041C4F202012B
:1030200088421BD0FFE70F98006840F28841C4F245
:103030000201884212D0FFE70F98006840F2A041D9
:10304000C4F20201884209D0FFE70F98006840F2FD
:10305000B841C4F20201884207D1FFE70F98006827
:10306000006800F00200049005E00F980068006816
:1030700000200490FFE7049870B1FFE70F98C06D3F
:1030800000F01F0104208840099988600F99486D5D
:1030900040F004004865FFE7FFE70E980F99C96DFF
:1030A00001F01F01C840C006002840F1DE80FFE7A4
:1030B0000F9800681021C4F20201884200F081805C
:1030C000FFE70F9800682821C4F20201884278D0F7
:1030D000FFE70F9800684021C4F20201884270D0D7
:1030E000FFE70F9800685821C4F20201884268D0B7
:1030F000FFE70F9800687021C4F20201884260D097
:10310000FFE70F9800688821C4F20201884258D076
:10311000FFE70F980068A021C4F20201884250D056
:10312000FFE70F980068B821C4F20201884248D036
:10313000FFE70F98006840F21041C4F20201884294
:103140003FD0FFE70F98006840F22841C4F2020127
:10315000884236D0FFE70F98006840F24041C4F241
:10316000020188422DD0FFE70F98006840F25841D5
:10317000C4F20201884224D0FFE70F98006840F2B1
:103180007041C4F2020188421BD0FFE70F9800682B
:1031900040F28841C4F20201884212D0FFE70F9842
:1031A000006840F2A041C4F20201884209D0FFE762
:1031B0000F98006840F2B841C4F20201884207D17A
:1031C000FFE70F980068006800F00800039006E031
:1031D0000F980068006800F004000390FFE7039870
:1031E000002841D0FFE70F98C06D00F01F011020AC
:1031F0008840099988600F9800680068400300289B
:103200001AD5FFE70F98006800680003002809D46A
:10321000FFE70F98006C20B1FFE70F98016C88471B
:10322000FFE708E00F98806C20B1FFE70F98816CF2
:103230008847FFE7FFE716E00F9800680068C005C1
:10324000002807D4FFE70F980168086820F00800FD
:103250000860FFE70F98006C20B1FFE70F98016C42
:103260008847FFE7FFE7FFE7FFE70E980F99C96D73
:1032700001F01F01C8408006002840F12681FFE7C9
:103280000F9800681021C4F20201884200F081808A
:10329000FFE70F9800682821C4F20201884278D025
:1032A000FFE70F9800684021C4F20201884270D005
:1032B000FFE70F9800685821C4F20201884268D0E5
:1032C000FFE70F9800687021C4F20201884260D0C5
:1032D000FFE70F9800688821C4F20201884258D0A5
:1032E000FFE70F980068A021C4F20201884250D085
:1032F000FFE70F980068B821C4F20201884248D065
:10330000FFE70F98006840F21041C4F202018842C2
:103310003FD0FFE70F98006840F22841C4F2020155
:10332000884236D0FFE70F98006840F24041C4F26F
:10333000020188422DD0FFE70F98006840F2584103
:10334000C4F20201884224D0FFE70F98006840F2DF
:103350007041C4F2020188421BD0FFE70F98006859
:1033600040F28841C4F20201884212D0FFE70F9870
:10337000006840F2A041C4F20201884209D0FFE790
:103380000F98006840F2B841C4F20201884207D1A8
:10339000FFE70F980068006800F01000029006E058
:1033A0000F980068006800F002000290FFE70298A2
:1033B000002800F08980FFE70F98C06D00F01F0122
:1033C00020208840099988600F9890F835000428DB
:1033D00037D1FFE70F980168086820F016000860F1
:1033E0000F980168486920F0800048610F98006CD0
:1033F00020B9FFE70F98806C38B1FFE70F9801689C
:10340000086820F008000860FFE70F98C06D00F022
:103410001F013F208840099988600F99012081F899
:103420003500FFE70F99002081F83400FFE70F987F
:10343000006D20B1FFE70F98016D8847FFE700F0AE
:1034400019BC0F9800680068400300281AD5FFE7F0
:103450000F98006800680003002809D4FFE70F9860
:10346000406C20B1FFE70F98416C8847FFE708E008
:103470000F98C06B20B1FFE70F98C16B8847FFE73B
:10348000FFE720E00F9800680068C005002811D40D
:10349000FFE70F980168086820F0100008600F9996
:1034A000012081F83500FFE70F99002081F83400F2
:1034B000FFE7FFE70F98C06B20B1FFE70F98C16BE4
:1034C0008847FFE7FFE7FFE7FFE70F98406D002819
:1034D00000F0D480FFE70F98406DC007002800F08F
:1034E000C480FFE70F99042081F835000F98006829
:1034F0001021C4F20201884200F08180FFE70F989A
:1035000000682821C4F20201884278D0FFE70F98B2
:1035100000684021C4F20201884270D0FFE70F9892
:1035200000685821C4F20201884268D0FFE70F9872
:1035300000687021C4F20201884260D0FFE70F9852
:1035400000688821C4F20201884258D0FFE70F9832
:103550000068A021C4F20201884250D0FFE70F9812
:103560000068B821C4F20201884248D0FFE70F98F2
:10357000006840F21041C4F2020188423FD0FFE7E8
:103580000F98006840F22841C4F20201884236D008
:10359000FFE70F98006840F24041C4F20201884200
:1035A0002DD0FFE70F98006840F25841C4F20201A5
:1035B000884224D0FFE70F98006840F27041C4F2BF
:1035C000020188421BD0FFE70F98006840F2884153
:1035D000C4F20201884212D0FFE70F98006840F25F
:1035E000A041C4F20201884209D0FFE70F980068A9
:1035F00040F2B841C4F20201884207D1FFE70F98B8
:103600000168086820F00100086006E00F98016872
:10361000086820F001000860FFE7FFE70B98013021
:103620000B900A99884201D9FFE707E0FFE70F985E
:1036300000680068C0070028F0D1FFE70F98006815
:103640000068C00728B1FFE70F99032081F8350013
:1036500004E00F99012081F83500FFE7FFE70F999B
:10366000002081F83400FFE7FFE70F98C06C20B11D
:10367000FFE70F98C16C8847FFE7FFE7FAE20F9872
:103680000168012045F20842C5F60202914201900C
:103690004ED0FFE70F980168012045F21C42C5F6A5
:1036A00002029142019043D0FFE70F980168012088
:1036B00045F23042C5F602029142019038D0FFE750
:1036C0000F980168012045F24442C5F6020291427A
:1036D00001902DD0FFE70F980168012045F2584274
:1036E000C5F602029142019022D0FFE70F980168CF
:1036F000012045F26C42C5F602029142019017D0BA
:10370000FFE70F980168012045F28042C5F60202EA
:10371000914201900CD0FFE70F9800684AF66C3197
:10372000CAF2FD710844B0FA80F040090190FFE749
:103730000198C007002800F09B82FFE70F980068FF
:1037400000680C900D980F99C96D01F01F01C840D9
:103750004007002840F1D780FFE79DF83000400780
:10376000002840F1D080FFE70F98C06D00F01F01E6
:1037700004208840089948609DF831000006002820
:1037800018D5FFE79DF83200C00748B9FFE70F984A
:10379000806C20B1FFE70F98816C8847FFE708E055
:1037A0000F98006C20B1FFE70F98016C8847FFE786
:1037B000FFE7A7E09DF830008006002800F199801F
:1037C000FFE70F9800681021C4F20201884200F060
:1037D0008180FFE70F9800682821C4F20201884227
:1037E00078D0FFE70F9800684021C4F202018842B8
:1037F00070D0FFE70F9800685821C4F20201884298
:1038000068D0FFE70F9800687021C4F20201884277
:1038100060D0FFE70F9800688821C4F20201884257
:1038200058D0FFE70F980068A021C4F20201884237
:1038300050D0FFE70F980068B821C4F20201884217
:1038400048D0FFE70F98006840F21041C4F202012F
:1038500088423FD0FFE70F98006840F22841C4F249
:103860000201884236D0FFE70F98006840F24041DD
:10387000C4F2020188422DD0FFE70F98006840F2A1
:103880005841C4F20201884224D0FFE70F98006833
:1038900040F27041C4F2020188421BD0FFE70F984A
:1038A000006840F28841C4F20201884212D0FFE76A
:1038B0000F98006840F2A041C4F20201884209D08A
:1038C000FFE70F98006840F2B841C4F20201884255
:1038D00007D1FFE70F980168086820F0080008602A
:1038E00006E00F980168086820F004000860FFE710
:1038F000FFE70F98006C20B1FFE70F98016C884735
:10390000FFE7FFE7B3E10D980F99C96D01F01F01C3
:10391000C8408007002840F1E180FFE79DF83000B3
:103920008007002840F1DA80FFE70F98C06D00F0B3
:103930001F0102208840089948609DF83100000668
:10394000002818D5FFE79DF83200C00748B9FFE707
:103950000F98406C20B1FFE70F98416C8847FFE754
:1039600008E00F98C06B20B1FFE70F98C16B884744
:10397000FFE7FFE7B1E09DF830008006002800F186
:10398000A380FFE70F9800681021C4F2020188426B
:1039900000F08180FFE70F9800682821C4F202013F
:1039A000884278D0FFE70F9800684021C4F20201F6
:1039B000884270D0FFE70F9800685821C4F20201D6
:1039C000884268D0FFE70F9800687021C4F20201B6
:1039D000884260D0FFE70F9800688821C4F2020196
:1039E000884258D0FFE70F980068A021C4F2020176
:1039F000884250D0FFE70F980068B821C4F2020156
:103A0000884248D0FFE70F98006840F21041C4F2A6
:103A1000020188423FD0FFE70F98006840F228413A
:103A2000C4F20201884236D0FFE70F98006840F2E6
:103A30004041C4F2020188422DD0FFE70F98006890
:103A400040F25841C4F20201884224D0FFE70F98A7
:103A5000006840F27041C4F2020188421BD0FFE7C7
:103A60000F98006840F28841C4F20201884212D0E7
:103A7000FFE70F98006840F2A041C4F202018842BB
:103A800009D0FFE70F98006840F2B841C4F2020184
:103A9000884207D1FFE70F980168086820F01400FA
:103AA000086006E00F980168086820F00A000860C6
:103AB000FFE70F99012081F83500FFE70F990020FB
:103AC00081F83400FFE7FFE70F98C06B20B1FFE7F4
:103AD0000F98C16B8847FFE7FFE7C7E00D980F9984
:103AE000C96D01F01F01C8400007002840F1BC80EB
:103AF000FFE79DF830000007002840F1B580FFE7A0
:103B00000F9800681021C4F20201884200F0818001
:103B1000FFE70F9800682821C4F20201884278D09C
:103B2000FFE70F9800684021C4F20201884270D07C
:103B3000FFE70F9800685821C4F20201884268D05C
:103B4000FFE70F9800687021C4F20201884260D03C
:103B5000FFE70F9800688821C4F20201884258D01C
:103B6000FFE70F980068A021C4F20201884250D0FC
:103B7000FFE70F980068B821C4F20201884248D0DC
:103B8000FFE70F98006840F21041C4F2020188423A
:103B90003FD0FFE70F98006840F22841C4F20201CD
:103BA000884236D0FFE70F98006840F24041C4F2E7
:103BB000020188422DD0FFE70F98006840F258417B
:103BC000C4F20201884224D0FFE70F98006840F257
:103BD0007041C4F2020188421BD0FFE70F980068D1
:103BE00040F28841C4F20201884212D0FFE70F98E8
:103BF000006840F2A041C4F20201884209D0FFE708
:103C00000F98006840F2B841C4F20201884207D11F
:103C1000FFE70F980168086820F01C00086006E0C4
:103C20000F980168086820F00E000860FFE70F9801
:103C3000C06D00F01F01012000FA01F1089A5160E7
:103C40000F9948650F9981F83500FFE70F9900201B
:103C500081F83400FFE70F98C06C20B1FFE70F98A0
:103C6000C16C8847FFE700E0FFE7FFE7FFE700E000
:103C7000FFE7FFE710B080BD10B58EB00C9002F0EA
:103C800073FD0A900C9828B9FFE701208DF83700E2
:103C900000F09EBC0C98016801201022C4F20202C0
:103CA0009142079000F0A380FFE70C980168012083
:103CB0002822C4F202029142079000F09880FFE7A8
:103CC0000C98016801204022C4F202029142079040
:103CD00000F08D80FFE70C98016801205822C4F2A3
:103CE00002029142079000F08280FFE70C98016881
:103CF00001207022C4F202029142079077D0FFE7C0
:103D00000C98016801208822C4F2020291420790B7
:103D10006DD0FFE70C9801680120A022C4F20202D6
:103D20009142079063D0FFE70C9801680120B82208
:103D3000C4F202029142079059D0FFE70C98016843
:103D4000012040F21042C4F20202914207904ED08C
:103D5000FFE70C980168012040F22842C4F20202F9
:103D60009142079043D0FFE70C980168012040F290
:103D70004042C4F202029142079038D0FFE70C980B
:103D80000168012040F25842C4F2020291420790B9
:103D90002DD0FFE70C980168012040F27042C4F278
:103DA00002029142079022D0FFE70C98016801209F
:103DB00040F28842C4F202029142079017D0FFE716
:103DC0000C980168012040F2A042C4F20202914224
:103DD00007900CD0FFE70C9800684FF64831CBF6FF
:103DE000FD710844B0FA80F040090790FFE707989A
:103DF000C007002800F07881FFE70C98406A08B1FE
:103E0000FFE7FFE70C99022081F83500FFE70C99E6
:103E1000002081F83400FFE70C9800681021C4F2FC
:103E20000201884200F08180FFE70C980068282199
:103E3000C4F20201884278D0FFE70C980068402164
:103E4000C4F20201884270D0FFE70C980068582144
:103E5000C4F20201884268D0FFE70C980068702124
:103E6000C4F20201884260D0FFE70C980068882104
:103E7000C4F20201884258D0FFE70C980068A021E4
:103E8000C4F20201884250D0FFE70C980068B821C4
:103E9000C4F20201884248D0FFE70C98006840F263
:103EA0001041C4F2020188423FD0FFE70C9800683D
:103EB00040F22841C4F20201884236D0FFE70C9854
:103EC000006840F24041C4F2020188422DD0FFE771
:103ED0000C98006840F25841C4F20201884224D094
:103EE000FFE70C98006840F27041C4F2020188427A
:103EF0001BD0FFE70C98006840F28841C4F2020131
:103F0000884212D0FFE70C98006840F2A041C4F24A
:103F10000201884209D0FFE70C98006840F2B841DE
:103F2000C4F20201884207D1FFE70C9801680868D3
:103F300020F00100086006E00C980168086820F095
:103F400001000860FFE7FFE70C9800680068C00701
:103F500098B1FFE702F008FC0A99401A06280BD333
:103F6000FFE70C99202048650C99032081F8350063
:103F700001208DF837002BE3E6E70C980068006815
:103F80000B900B9848F23F01CFF6106108400B9060
:103F90000C998868D1F80CC00B694A6940EA0C009A
:103FA000184310438A691043CA691043096A0143E0
:103FB0000B9808430B900C98406A042808D1FFE73F
:103FC0000C99C86A096B01430B9808430B90FFE7F3
:103FD0000C984068292807D3FFE70C984168012016
:103FE0002F29069036D3FFE70C9840683F2807D367
:103FF000FFE70C9841680120432906902AD3FFE788
:104000000C984068472807D3FFE70C9841680120C7
:10401000492906901ED3FFE70C9840684F2807D324
:10402000FFE70C98416801205329069012D3FFE75F
:104030000C98416800207429059008D3FFE70C987C
:1040400041680020782938BF01200590FFE70598D6
:104050000690FFE70698C00728B1FFE70B9840F4E9
:1040600080100B90FFE70B980C99096808600C987A
:10407000006840690B900B9820F007000B900C989B
:10408000416A0B9808430B900C98406A04281AD197
:10409000FFE70C98816A0B9808430B900C98C06A54
:1040A00080B1FFE70C98FCF7A7FF50B1FFE70C9930
:1040B000402048650C99012081F835008DF83700C3
:1040C00086E2FFE7FFE70B980C99096848610C98B6
:1040D000FCF756FD09900C98C06D00F01F013F20C1
:1040E00088400999886026E10C980168012045F212
:1040F0000842C5F60202914204904ED0FFE70C98A8
:104100000168012045F21C42C5F60202914204906A
:1041100043D0FFE70C980168012045F23042C5F614
:1041200002029142049038D0FFE70C980168012008
:1041300045F24442C5F60202914204902DD0FFE7B9
:104140000C980168012045F25842C5F602029142DE
:10415000049022D0FFE70C980168012045F26C42E0
:10416000C5F602029142049017D0FFE70C9801684F
:10417000012045F28042C5F60202914204900CD023
:10418000FFE70C9800684AF66C31CAF2FD710844EA
:10419000B0FA80F040090490FFE70498C0070028B7
:1041A00000F0BD80FFE70C980168012045F208424D
:1041B000C5F60202914203904ED0FFE70C980168C9
:1041C000012045F21C42C5F602029142039043D001
:1041D000FFE70C980168012045F23042C5F6020263
:1041E0009142039038D0FFE70C980168012045F216
:1041F0004442C5F60202914203902DD0FFE70C988D
:104200000168012045F25842C5F60202914203902E
:1042100022D0FFE70C980168012045F26C42C5F6F8
:1042200002029142039017D0FFE70C980168012029
:1042300045F28042C5F60202914203900CD0FFE79E
:104240000C9800684AF66C31CAF2FD710844B0FA65
:1042500080F040090390FFE70398C00708B1FFE72B
:10426000FFE70C99022081F83500FFE70C99002048
:1042700081F83400FFE70C98006800680B900B98F9
:104280006FF310100B900C988068402803D1FFE763
:104290001020029008E00C9880688038B0FA80F016
:1042A000400980030290FFE702980C99CA680B69E5
:1042B000D1F814C0D1F818E0CC694EEA040E4CEAEB
:1042C0000E0C43EA0C031A4340EAD200096A40EAA2
:1042D00011110B9808430B900B980C990968086012
:1042E0000C9908684AF6F832CAF2FD7210444CF68E
:1042F000CD42CCF6CC42A0FB02026FF0030000EAF4
:104300009200C8650C98FCF73BFC08900C98C06DB7
:1043100000F01F0101208840089948600AE00C99CC
:10432000402048650C99032081F8350001208DF864
:1043300037004DE1FFE70C98016801201022C4F21C
:1043400002029142019000F00381FFE70C9801689E
:1043500001202822C4F202029142019000F0F8806C
:10436000FFE70C98016801204022C4F2020291424A
:10437000019000F0ED80FFE70C98016801205822C1
:10438000C4F202029142019000F0E280FFE70C9833
:10439000016801207022C4F202029142019000F0F3
:1043A000D780FFE70C98016801208822C4F202023E
:1043B0009142019000F0CC80FFE70C980168012049
:1043C000A022C4F202029142019000F0C180FFE7F6
:1043D0000C9801680120B822C4F2020291420190B7
:1043E00000F0B680FFE70C980168012040F210420F
:1043F000C4F202029142019000F0AA80FFE70C98FB
:104400000168012040F22842C4F202029142019068
:1044100000F09E80FFE70C980168012040F24042C6
:10442000C4F202029142019000F09280FFE70C98E2
:104430000168012040F25842C4F202029142019008
:1044400000F08680FFE70C980168012040F270427E
:10445000C4F20202914201907AD0FFE70C98016801
:10446000012040F28842C4F20202914201906FD0D2
:10447000FFE70C980168012040F2A042C4F202025A
:104480009142019064D0FFE70C980168012040F24E
:10449000B842C4F202029142019059D0FFE70C9851
:1044A0000168012045F20842C5F6020291420190DE
:1044B0004ED0FFE70C980168012045F21C42C5F67A
:1044C00002029142019043D0FFE70C98016801205D
:1044D00045F23042C5F602029142019038D0FFE722
:1044E0000C980168012045F24442C5F6020291424F
:1044F00001902DD0FFE70C980168012045F2584249
:10450000C5F602029142019022D0FFE70C980168A3
:10451000012045F26C42C5F602029142019017D08B
:10452000FFE70C980168012045F28042C5F60202BF
:10453000914201900CD0FFE70C9800684AF66C316C
:10454000CAF2FD710844B0FA80F040090190FFE71B
:104550000198C00790B3FFE70C98FCF7F9FB0C98A3
:104560008068802804D1FFE70C9900204860FFE7AD
:104570000C990879096E08600C98416E806E48604D
:104580000C98406888B1FFE70C98406808280CD860
:10459000FFE70C98FCF798FC0C98C16E00200860AF
:1045A0000C98016F406F486007E00C990020C866C6
:1045B0000C9908670C994867FFE7FFE70C99002002
:1045C00048650C9A012182F835108DF83700FFE715
:1045D0009DF837000EB010BD80B588B006900591EB
:1045E0000492039300208DF80B00069820B9FFE792
:1045F00001208DF81F006CE3FFE7069890F8340067
:10460000012804D1FFE702208DF81F0061E306991D
:10461000012081F83400FFE7FFE7069890F83500A5
:10462000012840F04383FFE70699022081F8350016
:10463000069900204865069800681021C4F202011E
:10464000884200F08180FFE7069800682821C4F2C4
:104650000201884278D0FFE7069800684021C4F242
:104660000201884270D0FFE7069800685821C4F222
:104670000201884268D0FFE7069800687021C4F202
:104680000201884260D0FFE7069800688821C4F2E2
:104690000201884258D0FFE706980068A021C4F2C2
:1046A0000201884250D0FFE706980068B821C4F2A2
:1046B0000201884248D0FFE70698006840F21041A6
:1046C000C4F2020188423FD0FFE70698006840F23A
:1046D0002841C4F20201884236D0FFE706980068FC
:1046E00040F24041C4F2020188422DD0FFE7069813
:1046F000006840F25841C4F20201884224D0FFE72A
:104700000698006840F27041C4F2020188421BD052
:10471000FFE70698006840F28841C4F2020188422F
:1047200012D0FFE70698006840F2A041C4F20201EF
:10473000884209D0FFE70698006840F2B841C4F209
:104740000201884207D1FFE706980168086820F057
:104750000100086006E006980168086820F0010082
:104760000860FFE706980599049A039BFCF7BCFCD8
:104770000698016801201022C4F2020291420190C1
:1047800000F0A380FFE70698016801202822C4F208
:1047900002029142019000F09880FFE706980168BC
:1047A00001204022C4F202029142019000F08D806B
:1047B000FFE70698016801205822C4F202029142E4
:1047C000019000F08280FFE70698016801207022C6
:1047D000C4F202029142019077D0FFE70698016887
:1047E00001208822C4F20202914201906DD0FFE7BD
:1047F000069801680120A022C4F2020291420190B1
:1048000063D0FFE7069801680120B822C4F20202D3
:104810009142019059D0FFE706980168012040F2CB
:104820001042C4F20202914201904ED0FFE7069876
:104830000168012040F22842C4F202029142019034
:1048400043D0FFE706980168012040F24042C4F2DD
:1048500002029142019038D0FFE7069801680120DA
:1048600040F25842C4F20202914201902DD0FFE77B
:1048700006980168012040F27042C4F2020291429F
:10488000019022D0FFE706980168012040F288429B
:10489000C4F202029142019017D0FFE70698016826
:1048A000012040F2A042C4F20202914201900CD0D9
:1048B000FFE7069800684FF64831CBF6FD710844D3
:1048C000B0FA80F040090190FFE70198C007A8B155
:1048D000FFE70698006800680B2161F34400069921
:1048E000096808600698006C38B1FFE7069801680F
:1048F000086840F008000860FFE714E006980068C8
:104900000068052161F3430006990968086006986C
:10491000006C38B1FFE706980168086840F00400B1
:104920000860FFE7FFE70698016801201022C4F243
:1049300002029142009000F00381FFE706980168AF
:1049400001202822C4F202029142009000F0F88077
:10495000FFE70698016801204022C4F2020291425A
:10496000009000F0ED80FFE70698016801205822D2
:10497000C4F202029142009000F0E280FFE7069844
:10498000016801207022C4F202029142009000F0FE
:10499000D780FFE70698016801208822C4F202024E
:1049A0009142009000F0CC80FFE70698016801205A
:1049B000A022C4F202029142009000F0C180FFE701
:1049C000069801680120B822C4F2020291420090C8
:1049D00000F0B680FFE706980168012040F210421F
:1049E000C4F202029142009000F0AA80FFE706980C
:1049F0000168012040F22842C4F202029142009074
:104A000000F09E80FFE706980168012040F24042D6
:104A1000C4F202029142009000F09280FFE70698F3
:104A20000168012040F25842C4F202029142009013
:104A300000F08680FFE706980168012040F270428E
:104A4000C4F20202914200907AD0FFE70698016812
:104A5000012040F28842C4F20202914200906FD0DD
:104A6000FFE706980168012040F2A042C4F202026A
:104A70009142009064D0FFE706980168012040F25F
:104A8000B842C4F202029142009059D0FFE7069862
:104A90000168012045F20842C5F6020291420090E9
:104AA0004ED0FFE706980168012045F21C42C5F68A
:104AB00002029142009043D0FFE70698016801206E
:104AC00045F23042C5F602029142009038D0FFE72D
:104AD00006980168012045F24442C5F6020291425F
:104AE00000902DD0FFE706980168012045F258425A
:104AF000C5F602029142009022D0FFE706980168B5
:104B0000012045F26C42C5F602029142009017D096
:104B1000FFE706980168012045F28042C5F60202CF
:104B2000914200900CD0FFE7069800684AF66C317D
:104B3000CAF2FD710844B0FA80F040090090FFE726
:104B40000098C007D0B1FFE70698006E0068C00368
:104B5000002807D5FFE70698016E086840F48070CA
:104B60000860FFE70698C06E38B1FFE70698C16E8F
:104B7000086840F480700860FFE7FFE70698006867
:104B80001021C4F20201884200F08180FFE70698FC
:104B900000682821C4F20201884278D0FFE7069815
:104BA00000684021C4F20201884270D0FFE70698F5
:104BB00000685821C4F20201884268D0FFE70698D5
:104BC00000687021C4F20201884260D0FFE70698B5
:104BD00000688821C4F20201884258D0FFE7069895
:104BE0000068A021C4F20201884250D0FFE7069875
:104BF0000068B821C4F20201884248D0FFE7069855
:104C0000006840F21041C4F2020188423FD0FFE741
:104C10000698006840F22841C4F20201884236D06A
:104C2000FFE70698006840F24041C4F20201884262
:104C30002DD0FFE70698006840F25841C4F2020107
:104C4000884224D0FFE70698006840F27041C4F221
:104C5000020188421BD0FFE70698006840F28841B5
:104C6000C4F20201884212D0FFE70698006840F2C1
:104C7000A041C4F20201884209D0FFE7069800680B
:104C800040F2B841C4F20201884207D1FFE706981A
:104C90000168086840F00100086006E006980168B5
:104CA000086840F001000860FFE70DE006994FF446
:104CB00000604865FFE70699002081F83400FFE7AF
:104CC00001208DF80B00FFE79DF80B008DF81F0009
:104CD000FFE79DF81F0008B080BD00000000000045
:104CE00080B584B0039001F03FFD029003980190DD
:104CF0000198013048B1FFE740F22850C2F200406D
:104D00000178019808440190FFE7FFE701F02CFDCE
:104D10000299401A0199884201D2FFE7F6E704B0F0
:104D200080BD00000000000085B003900291019258
:104D3000039890F898008DF803009DF8030001286F
:104D400005D0FFE79DF8030002285DD1FFE7029838
:104D500003990968896D084207D1FFE70398016844
:104D6000C86D40F00100C86515E002980399096814
:104D7000896D08400299884207D1FFE703980168CE
:104D8000C86D40F00200C86504E003980168032084
:104D9000C865FFE7FFE79DF809008007002809D5EF
:104DA000FFE7019A03980168D1F8E0001043C1F8C9
:104DB000E000FFE79DF809004007002809D5FFE75C
:104DC000019A03980168D1F8E4001043C1F8E400A7
:104DD000FFE7FFE702984FF6FF71C3F6CF7100EAD5
:104DE000010203980168486D10434865029A4AF62B
:104DF0001401C4F20001086840EA92700860FFE7FD
:104E000000208DF813000AE00399D1F89C0040F0CF
:104E10000200C1F89C0001208DF81300FFE79DF807
:104E2000130005B07047000080B586B00490039170
:104E300002920398406808B9FFE700E0FFE7049892
:104E400090F89800022845D1FFE704980068D0F850
:104E5000C00010F07C5F0BD1FFE70499D1F89C00F3
:104E600040F02000C1F89C0001208DF817003CE0C4
:104E700004980068D0F8C400800200280BD5FFE732
:104E80000499D1F89C0040F40070C1F89C00012006
:104E90008DF8170029E004980068D0F8C400C0F32A
:104EA0000440019004980399029A019BFCF78CFD41
:104EB0000199012000FA01F1049A1268C2F8D01099
:104EC000019988400499C1F89400FFE700208DF80B
:104ED00017000AE00499D1F89C0040F00800C1F8DE
:104EE0009C0001208DF81700FFE79DF8170006B021
:104EF00080BD00000000000082B00190009102B06F
:104F0000704700000000000084B002900191009200
:104F1000019808B9FFE700E0FFE7029890F89800D1
:104F2000012836D1FFE7019870B9FFE702980068C1
:104F3000D0F8F00020F07C50009940EA016002991E
:104F40000968C1F8F00020E0019801280ED1FFE7C0
:104F500002980068D0F8A00020F0FE40009940EAD6
:104F6000016002990968C1F8A0000DE0029800688C
:104F7000D0F8B00020F0FE40009940EA01600299AC
:104F80000968C1F8B000FFE7FFE700208DF80F00C7
:104F90000AE00299D1F89C0040F00400C1F89C009E
:104FA00001208DF80F00FFE79DF80F0004B0704757
:104FB00087B005900491059890F898008DF803004B
:104FC0009DF80300012805D0FFE79DF803000228A3
:104FD0006AD1FFE70498C068072801D1FFE7FFE71F
:104FE0000498006878BBFFE70498C068072801D0E0
:104FF000FFE7FFE70498C06807280CD1FFE7049A91
:1050000010699169D269000440EA0220084340F027
:10501000605003900CE004998868CB680A6949697C
:10502000800740EAC36040EA024008430390FFE77C
:105030000598C06E0499496800EB810001900398BF
:10504000019908602CE00498C068072801D0FFE7A8
:10505000FFE70498C168006940EA41700390049832
:10506000C068072804D1FFE704988069029006E031
:1050700004988168406940EA81700290FFE70598D2
:10508000006F0499496800EBC100019003980199F1
:105090000860019804300190029801990860FFE7C8
:1050A00000208DF81B000AE00599D1F89C0040F023
:1050B0000200C1F89C0001208DF81B00FFE79DF85D
:1050C0001B0007B07047000085B0DDF814C00390E6
:1050D000029101920093039890F89800012812D150
:1050E000FFE702980001019940EA8100009940EA37
:1050F00041000599084303990968C1F88000002020
:105100008DF813000AE00399D1F89C0040F00400E8
:10511000C1F89C0001208DF81300FFE79DF81300F3
:1051200005B070470000000080B582B00190019882
:1051300000684DF20041C4F20001884214D1FFE73B
:10514000019800F01DF800909DF8010080070028EC
:1051500009D5FFE743F60800C2F200400121002212
:10516000FFF7E2FDFFE7FFE702B080BD00000000AF
:1051700082B00190009102B0704700000000000072
:1051800081B000900098D0F89C0001B070470000FA
:105190008AB0089007910692059300200190089824
:1051A00090F898008DF803009DF80300022840F065
:1051B0005C81FFE70798402851D1FFE70898006815
:1051C000D0F8A00010F4FE0F0BD1FFE70899D1F83A
:1051D0009C0040F02000C1F89C0001208DF82700C1
:1051E0004EE108980068D0F8A400400658B9FFE7DF
:1051F0000899D1F89C0040F48070C1F89C0001200F
:105200008DF827003CE108980068D0F8A40000F071
:1052100080710120B0EB116F0DD1FFE70898006895
:10522000D0F8A0100120B0EBD17F03D1FFE701201F
:105230000190FFE7FFE708980068D0F8A40000F4A9
:105240007C51019800EB112001900898426C406F4E
:105250000199514300EB81000490FFE770E007984B
:10526000412851D1FFE708980068D0F8B00010F449
:10527000FE0F0BD1FFE70899D1F89C0040F0200009
:10528000C1F89C0001208DF82700F9E0089800681B
:10529000D0F8B400400658B9FFE70899D1F89C004F
:1052A00040F48070C1F89C0001208DF82700E7E0F1
:1052B00008980068D0F8B40000F080710120B0EBCD
:1052C000116F0DD1FFE708980068D0F8B0100120E9
:1052D000B0EBD17F03D1FFE701200190FFE7FFE7AB
:1052E00008980068D0F8B40000F47C51019800EBF5
:1052F000112001900898C26C806F0199514300EB16
:1053000081000490FFE71AE007980899096D884228
:105310000BD3FFE70899D1F89C0040F02000C1F8BA
:105320009C0001208DF82700AAE00898426DC06F0C
:105330000799514300EB81000490FFE7FFE7FFE787
:105340000498006800F0804006994860069840681C
:1053500038B9FFE704980068C0F38A4006990860EE
:1053600006E00498006820F0604006990860FFE7B6
:105370000498006800F0005006998860049800685E
:1053800000F00040069908610498043004900498E5
:1053900000880699C86104980068C0F30340069924
:1053A000C8600498006800F4801006994861049869
:1053B000006800F400100699886104980068C0F342
:1053C00006600699086204980068C00F0699486252
:1053D0000498043004900498039000200290FFE7A2
:1053E00002980699CA6848F24061C0F60101895CDA
:1053F00088420AD2FFE70398029A805C0599885494
:10540000FFE7029801300290EAE70798402806D1AA
:10541000FFE7019808990968C1F8A80021E00798FA
:10542000412806D1FFE7019808990968C1F8B8003A
:1054300016E007981F2808D8FFE707990120884041
:1054400008990968C1F8980009E0079800F01F0161
:105450000120884008990968C1F89C00FFE7FFE730
:10546000FFE700208DF827000AE00899D1F89C009A
:1054700040F00800C1F89C0001208DF82700FFE7EC
:105480009DF827000AB0704782B00190019800682B
:10549000D0F8C40000F03F000090009802B07047C0
:1054A00081B0009001B0704780B594B013904AF677
:1054B0001000C4F200000068800712904AF6140041
:1054C000C4F200000168129800EA817012901398EB
:1054D0000068006D00F47040119013980068416DF1
:1054E00011980840119013980068006D00F00F00AB
:1054F000109013980068416D109808401090139810
:105500000068006D00F0F0000F9013980068416D86
:105510000F9808400F9013980068006D00F07150CC
:105520000E9013980068416D0E9808400E901398E5
:105530000068006D00F060700D9013980068416D78
:105540000D9808400D9013980068406D03901398D3
:105550000068006D01909DF80D00C007B8B1FFE72D
:105560009DF80500C00788B1FFE7FFE713980168C1
:105570004FF4807008654AF61001C4F20001002063
:105580000860FFE71398FFF78BFFFFE7FFE79DF841
:105590000D0000F004010020B0EB910F28D0FFE7D0
:1055A0009DF8050000F004010020B0EB910F1ED023
:1055B000FFE713980068D0F8DC000B9013980068A0
:1055C000D0F8E4100B9808400B90FFE7139801689F
:1055D0004FF4806008654AF61001C4F20001002013
:1055E0000860FFE713980B9900F07AFEFFE7FFE7EA
:1055F0001298B8B1FFE7FFE712984FF6FF71C3F6B4
:10560000CF7108401399096808651298800F4AF60F
:105610001001C4F200010860FFE713981299FFF728
:105620006BFCFFE71198B8B1FFE7FFE711984FF661
:10563000FF71C3F6CF710840139909680865119886
:10564000800F4AF61001C4F200010860FFE71398CA
:10565000119900F059FEFFE71098B8B1FFE7FFE796
:1056600010984FF6FF71C3F6CF710840139909687F
:1056700008651098800F4AF61001C4F20001086016
:10568000FFE71398109900F023FDFFE70F98B8B1DA
:10569000FFE7FFE70F984FF6FF71C3F6CF710840A1
:1056A0001399096808650F98800F4AF61001C4F233
:1056B00000010860FFE713980F9900F065FDFFE710
:1056C0009DF80D0000F008010020B0EBD10F1BD0B9
:1056D000FFE79DF8050000F008010020B0EBD10FB6
:1056E00011D0FFE7FFE7139801684FF400600865E9
:1056F0004AF61001C4F2000100200860FFE7139889
:1057000000F00AFEFFE7FFE79DF80D0000F0020140
:105710000020B0EB510F28D0FFE79DF8050000F006
:1057200002010020B0EB510F1ED0FFE71398006874
:10573000D0F8D8000C9013980068D0F8E0100C98BE
:1057400008400C90FFE7139801684FF4007008655B
:105750004AF61001C4F2000100200860FFE7139828
:105760000C9900F0C5FDFFE7FFE79DF80E0000F083
:1057700008010020B0EBD10F1BD0FFE79DF8060019
:1057800000F008010020B0EBD10F11D0FFE7FFE7D8
:10579000139801684FF4002008654AF61001C4F21E
:1057A000000100200860FFE7139800F08DFCFFE780
:1057B000FFE79DF80E00C007B8B1FFE79DF80600AF
:1057C000C00788B1FFE7FFE7139801684FF4803006
:1057D00008654AF61001C4F2000100200860FFE7E6
:1057E000139800F079FDFFE7FFE79DF80E0000F049
:1057F00004010020B0EB910F1BD0FFE79DF80600DD
:1058000000F004010020B0EB910F11D0FFE7FFE79B
:10581000139801684FF4802008654AF61001C4F21D
:10582000000100200860FFE7139800F051FDFFE73A
:10583000FFE79DF80E0000F002010020B0EB510FD1
:105840001FD0FFE79DF8060000F002010020B0EB3A
:10585000510F15D0FFE7FFE7139801684FF40030B0
:1058600008654AF61001C4F2000100200860FFE755
:105870001399D1F89C0040F08000C1F89C00FFE72C
:10588000FFE70D98B8B1FFE7FFE70D984FF6FF71FE
:10589000C3F6CF7108401399096808650D98800F09
:1058A0004AF61001C4F200010860FFE713980D9951
:1058B000FFF75EFCFFE70E98D0B1FFE7FFE70E9819
:1058C0004FF6FF71C3F6CF71084013990968086558
:1058D0000E98800F4AF61001C4F200010860FFE73D
:1058E0000E9A1399D1F89C001043C1F89C00FFE771
:1058F000139800684AF20001C4F20001884240F0A7
:10590000B980FFE71398406880688007002800F09E
:10591000B080FFE713984068006A00F00F000A901B
:1059200013984068416A0A9808400A9013984068A2
:10593000006A00F03000099013984068416A0998A5
:105940000840099013984068006A00F4C0700890FD
:1059500013984068416A0898084008901398406876
:10596000006A00F4FC40079013984068416A079869
:105970000840079013984068006A00F4F0200690F1
:1059800013984068416A069808400690139840684A
:10599000406A029013984068006A00900A9848B1E3
:1059A000FFE70A9813994968086213980A9900F06A
:1059B00077FCFFE7099848B1FFE709981399496810
:1059C00008621398099900F07BFCFFE79DF8080036
:1059D00000F040010020B0EB911F1FD0FFE79DF8C1
:1059E000000000F040010020B0EB911F15D0FFE750
:1059F00013984068C06B000C059013984068C06B0A
:105A000000F03F000490139841684020086213980A
:105A10000599049A00F04CFCFFE7FFE7089848B1AD
:105A2000FFE708981399496808621398089900F0ED
:105A30002FFCFFE7079860B1FFE7079813994968C3
:105A40000862079A1399D1F89C001043C1F89C0092
:105A5000FFE7069860B1FFE7069813994968086266
:105A6000069A1399D1F89C001043C1F89C00FFE7F7
:105A7000FFE7FFE71398D0F89C0020B1FFE71398E9
:105A8000FFF752FBFFE714B080BD000000000000EC
:105A900080B598B0169048F2B841C0F6010101A84F
:105AA0004C22FAF7E2FD169820B9FFE701208DF8A5
:105AB0005F00D9E1169800684AF20001C4F20001C3
:105AC000884206D1FFE71699086800F580704860A3
:105AD000FFE716988068B0F5407F01D1FFE7FFE748
